{
    "_format": "hh-sol-artifact-1",
    "contractName": "Domains",
    "sourceName": "contracts/Domains.sol",
    "abi": [
        {
            "inputs": [
                {
                    "internalType": "string",
                    "name": "_tld",
                    "type": "string"
                }
            ],
            "stateMutability": "nonpayable",
            "type": "constructor"
        },
        {
            "anonymous": false,
            "inputs": [
                {
                    "indexed": true,
                    "internalType": "address",
                    "name": "owner",
                    "type": "address"
                },
                {
                    "indexed": true,
                    "internalType": "address",
                    "name": "approved",
                    "type": "address"
                },
                {
                    "indexed": true,
                    "internalType": "uint256",
                    "name": "tokenId",
                    "type": "uint256"
                }
            ],
            "name": "Approval",
            "type": "event"
        },
        {
            "anonymous": false,
            "inputs": [
                {
                    "indexed": true,
                    "internalType": "address",
                    "name": "owner",
                    "type": "address"
                },
                {
                    "indexed": true,
                    "internalType": "address",
                    "name": "operator",
                    "type": "address"
                },
                {
                    "indexed": false,
                    "internalType": "bool",
                    "name": "approved",
                    "type": "bool"
                }
            ],
            "name": "ApprovalForAll",
            "type": "event"
        },
        {
            "anonymous": false,
            "inputs": [
                {
                    "indexed": true,
                    "internalType": "address",
                    "name": "previousOwner",
                    "type": "address"
                },
                {
                    "indexed": true,
                    "internalType": "address",
                    "name": "newOwner",
                    "type": "address"
                }
            ],
            "name": "OwnershipTransferred",
            "type": "event"
        },
        {
            "anonymous": false,
            "inputs": [
                {
                    "indexed": true,
                    "internalType": "address",
                    "name": "from",
                    "type": "address"
                },
                {
                    "indexed": true,
                    "internalType": "address",
                    "name": "to",
                    "type": "address"
                },
                {
                    "indexed": true,
                    "internalType": "uint256",
                    "name": "tokenId",
                    "type": "uint256"
                }
            ],
            "name": "Transfer",
            "type": "event"
        },
        {
            "inputs": [
                {
                    "internalType": "address",
                    "name": "to",
                    "type": "address"
                },
                {
                    "internalType": "uint256",
                    "name": "tokenId",
                    "type": "uint256"
                }
            ],
            "name": "approve",
            "outputs": [],
            "stateMutability": "nonpayable",
            "type": "function"
        },
        {
            "inputs": [
                {
                    "internalType": "address",
                    "name": "owner",
                    "type": "address"
                }
            ],
            "name": "balanceOf",
            "outputs": [
                {
                    "internalType": "uint256",
                    "name": "",
                    "type": "uint256"
                }
            ],
            "stateMutability": "view",
            "type": "function"
        },
        {
            "inputs": [
                {
                    "internalType": "string",
                    "name": "",
                    "type": "string"
                }
            ],
            "name": "domains",
            "outputs": [
                {
                    "internalType": "address",
                    "name": "",
                    "type": "address"
                }
            ],
            "stateMutability": "view",
            "type": "function"
        },
        {
            "inputs": [
                {
                    "internalType": "string",
                    "name": "name",
                    "type": "string"
                }
            ],
            "name": "getAddress",
            "outputs": [
                {
                    "internalType": "address",
                    "name": "",
                    "type": "address"
                }
            ],
            "stateMutability": "view",
            "type": "function"
        },
        {
            "inputs": [
                {
                    "internalType": "uint256",
                    "name": "tokenId",
                    "type": "uint256"
                }
            ],
            "name": "getApproved",
            "outputs": [
                {
                    "internalType": "address",
                    "name": "",
                    "type": "address"
                }
            ],
            "stateMutability": "view",
            "type": "function"
        },
        {
            "inputs": [
                {
                    "internalType": "string",
                    "name": "name",
                    "type": "string"
                }
            ],
            "name": "getRecord",
            "outputs": [
                {
                    "internalType": "string",
                    "name": "",
                    "type": "string"
                }
            ],
            "stateMutability": "view",
            "type": "function"
        },
        {
            "inputs": [
                {
                    "internalType": "address",
                    "name": "owner",
                    "type": "address"
                },
                {
                    "internalType": "address",
                    "name": "operator",
                    "type": "address"
                }
            ],
            "name": "isApprovedForAll",
            "outputs": [
                {
                    "internalType": "bool",
                    "name": "",
                    "type": "bool"
                }
            ],
            "stateMutability": "view",
            "type": "function"
        },
        {
            "inputs": [],
            "name": "name",
            "outputs": [
                {
                    "internalType": "string",
                    "name": "",
                    "type": "string"
                }
            ],
            "stateMutability": "view",
            "type": "function"
        },
        {
            "inputs": [],
            "name": "owner",
            "outputs": [
                {
                    "internalType": "address",
                    "name": "",
                    "type": "address"
                }
            ],
            "stateMutability": "view",
            "type": "function"
        },
        {
            "inputs": [
                {
                    "internalType": "uint256",
                    "name": "tokenId",
                    "type": "uint256"
                }
            ],
            "name": "ownerOf",
            "outputs": [
                {
                    "internalType": "address",
                    "name": "",
                    "type": "address"
                }
            ],
            "stateMutability": "view",
            "type": "function"
        },
        {
            "inputs": [
                {
                    "internalType": "string",
                    "name": "name",
                    "type": "string"
                }
            ],
            "name": "price",
            "outputs": [
                {
                    "internalType": "uint256",
                    "name": "",
                    "type": "uint256"
                }
            ],
            "stateMutability": "pure",
            "type": "function"
        },
        {
            "inputs": [
                {
                    "internalType": "string",
                    "name": "",
                    "type": "string"
                }
            ],
            "name": "records",
            "outputs": [
                {
                    "internalType": "string",
                    "name": "",
                    "type": "string"
                }
            ],
            "stateMutability": "view",
            "type": "function"
        },
        {
            "inputs": [
                {
                    "internalType": "string",
                    "name": "name",
                    "type": "string"
                }
            ],
            "name": "register",
            "outputs": [],
            "stateMutability": "payable",
            "type": "function"
        },
        {
            "inputs": [],
            "name": "renounceOwnership",
            "outputs": [],
            "stateMutability": "nonpayable",
            "type": "function"
        },
        {
            "inputs": [
                {
                    "internalType": "address",
                    "name": "from",
                    "type": "address"
                },
                {
                    "internalType": "address",
                    "name": "to",
                    "type": "address"
                },
                {
                    "internalType": "uint256",
                    "name": "tokenId",
                    "type": "uint256"
                }
            ],
            "name": "safeTransferFrom",
            "outputs": [],
            "stateMutability": "nonpayable",
            "type": "function"
        },
        {
            "inputs": [
                {
                    "internalType": "address",
                    "name": "from",
                    "type": "address"
                },
                {
                    "internalType": "address",
                    "name": "to",
                    "type": "address"
                },
                {
                    "internalType": "uint256",
                    "name": "tokenId",
                    "type": "uint256"
                },
                {
                    "internalType": "bytes",
                    "name": "_data",
                    "type": "bytes"
                }
            ],
            "name": "safeTransferFrom",
            "outputs": [],
            "stateMutability": "nonpayable",
            "type": "function"
        },
        {
            "inputs": [
                {
                    "internalType": "address",
                    "name": "operator",
                    "type": "address"
                },
                {
                    "internalType": "bool",
                    "name": "approved",
                    "type": "bool"
                }
            ],
            "name": "setApprovalForAll",
            "outputs": [],
            "stateMutability": "nonpayable",
            "type": "function"
        },
        {
            "inputs": [
                {
                    "internalType": "string",
                    "name": "name",
                    "type": "string"
                },
                {
                    "internalType": "string",
                    "name": "record",
                    "type": "string"
                }
            ],
            "name": "setRecord",
            "outputs": [],
            "stateMutability": "nonpayable",
            "type": "function"
        },
        {
            "inputs": [
                {
                    "internalType": "bytes4",
                    "name": "interfaceId",
                    "type": "bytes4"
                }
            ],
            "name": "supportsInterface",
            "outputs": [
                {
                    "internalType": "bool",
                    "name": "",
                    "type": "bool"
                }
            ],
            "stateMutability": "view",
            "type": "function"
        },
        {
            "inputs": [],
            "name": "symbol",
            "outputs": [
                {
                    "internalType": "string",
                    "name": "",
                    "type": "string"
                }
            ],
            "stateMutability": "view",
            "type": "function"
        },
        {
            "inputs": [],
            "name": "tld",
            "outputs": [
                {
                    "internalType": "string",
                    "name": "",
                    "type": "string"
                }
            ],
            "stateMutability": "view",
            "type": "function"
        },
        {
            "inputs": [
                {
                    "internalType": "uint256",
                    "name": "tokenId",
                    "type": "uint256"
                }
            ],
            "name": "tokenURI",
            "outputs": [
                {
                    "internalType": "string",
                    "name": "",
                    "type": "string"
                }
            ],
            "stateMutability": "view",
            "type": "function"
        },
        {
            "inputs": [
                {
                    "internalType": "address",
                    "name": "from",
                    "type": "address"
                },
                {
                    "internalType": "address",
                    "name": "to",
                    "type": "address"
                },
                {
                    "internalType": "uint256",
                    "name": "tokenId",
                    "type": "uint256"
                }
            ],
            "name": "transferFrom",
            "outputs": [],
            "stateMutability": "nonpayable",
            "type": "function"
        },
        {
            "inputs": [
                {
                    "internalType": "address",
                    "name": "newOwner",
                    "type": "address"
                }
            ],
            "name": "transferOwnership",
            "outputs": [],
            "stateMutability": "nonpayable",
            "type": "function"
        },
        {
            "inputs": [],
            "name": "withdrawFunds",
            "outputs": [],
            "stateMutability": "nonpayable",
            "type": "function"
        }
    ],
    "bytecode": "0x608060405260405180610680016040528061064581526020016200534f6106459139600c90805190602001906200003892919062000383565b506040518060400160405280600d81526020017f3c2f746578743e3c2f7376673e00000000000000000000000000000000000000815250600d90805190602001906200008692919062000383565b503480156200009457600080fd5b5060405162005994380380620059948339818101604052810190620000ba9190620005d0565b6040518060400160405280601581526020017f466f726d756c6131204e616d65205365727669636500000000000000000000008152506040518060400160405280600481526020017f46314e530000000000000000000000000000000000000000000000000000000081525081600090805190602001906200013e92919062000383565b5080600190805190602001906200015792919062000383565b5050506200017a6200016e620001e660201b60201c565b620001ee60201b60201c565b80600990805190602001906200019292919062000383565b50620001df6040518060400160405280601881526020017f2573206e616d652073657276696365206465706c6f796564000000000000000081525082620002b460201b620019ce1760201c565b506200071e565b600033905090565b6000600760009054906101000a900473ffffffffffffffffffffffffffffffffffffffff16905081600760006101000a81548173ffffffffffffffffffffffffffffffffffffffff021916908373ffffffffffffffffffffffffffffffffffffffff1602179055508173ffffffffffffffffffffffffffffffffffffffff168173ffffffffffffffffffffffffffffffffffffffff167f8be0079c531659141344cd1fd0a4f28419497f9722a3daafe3b4186f6b6457e060405160405180910390a35050565b620003568282604051602401620002cd9291906200067e565b6040516020818303038152906040527f4b5c4277000000000000000000000000000000000000000000000000000000007bffffffffffffffffffffffffffffffffffffffffffffffffffffffff19166020820180517bffffffffffffffffffffffffffffffffffffffffffffffffffffffff83818316178352505050506200035a60201b60201c565b5050565b60008151905060006a636f6e736f6c652e6c6f679050602083016000808483855afa5050505050565b8280546200039190620006e8565b90600052602060002090601f016020900481019282620003b5576000855562000401565b82601f10620003d057805160ff191683800117855562000401565b8280016001018555821562000401579182015b8281111562000400578251825591602001919060010190620003e3565b5b50905062000410919062000414565b5090565b5b808211156200042f57600081600090555060010162000415565b5090565b6000604051905090565b600080fd5b600080fd5b600080fd5b600080fd5b6000601f19601f8301169050919050565b7f4e487b7100000000000000000000000000000000000000000000000000000000600052604160045260246000fd5b6200049c8262000451565b810181811067ffffffffffffffff82111715620004be57620004bd62000462565b5b80604052505050565b6000620004d362000433565b9050620004e1828262000491565b919050565b600067ffffffffffffffff82111562000504576200050362000462565b5b6200050f8262000451565b9050602081019050919050565b60005b838110156200053c5780820151818401526020810190506200051f565b838111156200054c576000848401525b50505050565b6000620005696200056384620004e6565b620004c7565b9050828152602081018484840111156200058857620005876200044c565b5b620005958482856200051c565b509392505050565b600082601f830112620005b557620005b462000447565b5b8151620005c784826020860162000552565b91505092915050565b600060208284031215620005e957620005e86200043d565b5b600082015167ffffffffffffffff8111156200060a576200060962000442565b5b62000618848285016200059d565b91505092915050565b600081519050919050565b600082825260208201905092915050565b60006200064a8262000621565b6200065681856200062c565b9350620006688185602086016200051c565b620006738162000451565b840191505092915050565b600060408201905081810360008301526200069a81856200063d565b90508181036020830152620006b081846200063d565b90509392505050565b7f4e487b7100000000000000000000000000000000000000000000000000000000600052602260045260246000fd5b600060028204905060018216806200070157607f821691505b60208210811415620007185762000717620006b9565b5b50919050565b614c21806200072e6000396000f3fe6080604052600436106101665760003560e01c806370a08231116100d1578063bf40fac11161008a578063e985e9c511610064578063e985e9c514610560578063f2c298be1461059d578063f2fde38b146105b9578063fe2c6198146105e257610166565b8063bf40fac1146104bd578063c1880a98146104fa578063c87b56dd1461052357610166565b806370a08231146103c1578063715018a6146103fe5780638da5cb5b1461041557806395d89b4114610440578063a22cb4651461046b578063b88d4fde1461049457610166565b806324600fc31161012357806324600fc31461029f57806326449235146102b65780632d551432146102f357806342842e0e1461031e578063541e771d146103475780636352211e1461038457610166565b806301ffc9a71461016b57806306fdde03146101a8578063081812fc146101d3578063095ea7b31461021057806311dd88451461023957806323b872dd14610276575b600080fd5b34801561017757600080fd5b50610192600480360381019061018d9190612eda565b61061f565b60405161019f9190612f22565b60405180910390f35b3480156101b457600080fd5b506101bd610701565b6040516101ca9190612fd6565b60405180910390f35b3480156101df57600080fd5b506101fa60048036038101906101f5919061302e565b610793565b604051610207919061309c565b60405180910390f35b34801561021c57600080fd5b50610237600480360381019061023291906130e3565b610818565b005b34801561024557600080fd5b50610260600480360381019061025b9190613188565b610930565b60405161026d9190612fd6565b60405180910390f35b34801561028257600080fd5b5061029d600480360381019061029891906131d5565b6109e3565b005b3480156102ab57600080fd5b506102b4610a43565b005b3480156102c257600080fd5b506102dd60048036038101906102d89190613358565b610b7d565b6040516102ea919061309c565b60405180910390f35b3480156102ff57600080fd5b50610308610bc6565b6040516103159190612fd6565b60405180910390f35b34801561032a57600080fd5b50610345600480360381019061034091906131d5565b610c54565b005b34801561035357600080fd5b5061036e60048036038101906103699190613358565b610c74565b60405161037b9190612fd6565b60405180910390f35b34801561039057600080fd5b506103ab60048036038101906103a6919061302e565b610d2a565b6040516103b8919061309c565b60405180910390f35b3480156103cd57600080fd5b506103e860048036038101906103e391906133a1565b610ddc565b6040516103f591906133dd565b60405180910390f35b34801561040a57600080fd5b50610413610e94565b005b34801561042157600080fd5b5061042a610f1c565b604051610437919061309c565b60405180910390f35b34801561044c57600080fd5b50610455610f46565b6040516104629190612fd6565b60405180910390f35b34801561047757600080fd5b50610492600480360381019061048d9190613424565b610fd8565b005b3480156104a057600080fd5b506104bb60048036038101906104b69190613505565b610fee565b005b3480156104c957600080fd5b506104e460048036038101906104df9190613188565b611050565b6040516104f1919061309c565b60405180910390f35b34801561050657600080fd5b50610521600480360381019061051c9190613588565b61109b565b005b34801561052f57600080fd5b5061054a6004803603810190610545919061302e565b61117f565b6040516105579190612fd6565b60405180910390f35b34801561056c57600080fd5b5061058760048036038101906105829190613609565b6112d1565b6040516105949190612f22565b60405180910390f35b6105b760048036038101906105b29190613188565b611365565b005b3480156105c557600080fd5b506105e060048036038101906105db91906133a1565b6117ee565b005b3480156105ee57600080fd5b5061060960048036038101906106049190613188565b6118e6565b60405161061691906133dd565b60405180910390f35b60007f80ac58cd000000000000000000000000000000000000000000000000000000007bffffffffffffffffffffffffffffffffffffffffffffffffffffffff1916827bffffffffffffffffffffffffffffffffffffffffffffffffffffffff191614806106ea57507f5b5e139f000000000000000000000000000000000000000000000000000000007bffffffffffffffffffffffffffffffffffffffffffffffffffffffff1916827bffffffffffffffffffffffffffffffffffffffffffffffffffffffff1916145b806106fa57506106f982611a6a565b5b9050919050565b60606000805461071090613678565b80601f016020809104026020016040519081016040528092919081815260200182805461073c90613678565b80156107895780601f1061075e57610100808354040283529160200191610789565b820191906000526020600020905b81548152906001019060200180831161076c57829003601f168201915b5050505050905090565b600061079e82611ad4565b6107dd576040517f08c379a00000000000000000000000000000000000000000000000000000000081526004016107d49061371c565b60405180910390fd5b6004600083815260200190815260200160002060009054906101000a900473ffffffffffffffffffffffffffffffffffffffff169050919050565b600061082382610d2a565b90508073ffffffffffffffffffffffffffffffffffffffff168373ffffffffffffffffffffffffffffffffffffffff161415610894576040517f08c379a000000000000000000000000000000000000000000000000000000000815260040161088b906137ae565b60405180910390fd5b8073ffffffffffffffffffffffffffffffffffffffff166108b3611b40565b73ffffffffffffffffffffffffffffffffffffffff1614806108e257506108e1816108dc611b40565b6112d1565b5b610921576040517f08c379a000000000000000000000000000000000000000000000000000000000815260040161091890613840565b60405180910390fd5b61092b8383611b48565b505050565b6060600b8383604051610944929190613890565b9081526020016040518091039020805461095d90613678565b80601f016020809104026020016040519081016040528092919081815260200182805461098990613678565b80156109d65780601f106109ab576101008083540402835291602001916109d6565b820191906000526020600020905b8154815290600101906020018083116109b957829003601f168201915b5050505050905092915050565b6109f46109ee611b40565b82611c01565b610a33576040517f08c379a0000000000000000000000000000000000000000000000000000000008152600401610a2a9061391b565b60405180910390fd5b610a3e838383611cdf565b505050565b610a4b611b40565b73ffffffffffffffffffffffffffffffffffffffff16610a69610f1c565b73ffffffffffffffffffffffffffffffffffffffff1614610abf576040517f08c379a0000000000000000000000000000000000000000000000000000000008152600401610ab690613987565b60405180910390fd5b610ac7610f1c565b73ffffffffffffffffffffffffffffffffffffffff163373ffffffffffffffffffffffffffffffffffffffff1614610b34576040517f08c379a0000000000000000000000000000000000000000000000000000000008152600401610b2b906139f3565b60405180910390fd5b3373ffffffffffffffffffffffffffffffffffffffff166108fc479081150290604051600060405180830381858888f19350505050158015610b7a573d6000803e3d6000fd5b50565b600a818051602081018201805184825260208301602085012081835280955050505050506000915054906101000a900473ffffffffffffffffffffffffffffffffffffffff1681565b60098054610bd390613678565b80601f0160208091040260200160405190810160405280929190818152602001828054610bff90613678565b8015610c4c5780601f10610c2157610100808354040283529160200191610c4c565b820191906000526020600020905b815481529060010190602001808311610c2f57829003601f168201915b505050505081565b610c6f83838360405180602001604052806000815250610fee565b505050565b600b818051602081018201805184825260208301602085012081835280955050505050506000915090508054610ca990613678565b80601f0160208091040260200160405190810160405280929190818152602001828054610cd590613678565b8015610d225780601f10610cf757610100808354040283529160200191610d22565b820191906000526020600020905b815481529060010190602001808311610d0557829003601f168201915b505050505081565b6000806002600084815260200190815260200160002060009054906101000a900473ffffffffffffffffffffffffffffffffffffffff169050600073ffffffffffffffffffffffffffffffffffffffff168173ffffffffffffffffffffffffffffffffffffffff161415610dd3576040517f08c379a0000000000000000000000000000000000000000000000000000000008152600401610dca90613a85565b60405180910390fd5b80915050919050565b60008073ffffffffffffffffffffffffffffffffffffffff168273ffffffffffffffffffffffffffffffffffffffff161415610e4d576040517f08c379a0000000000000000000000000000000000000000000000000000000008152600401610e4490613b17565b60405180910390fd5b600360008373ffffffffffffffffffffffffffffffffffffffff1673ffffffffffffffffffffffffffffffffffffffff168152602001908152602001600020549050919050565b610e9c611b40565b73ffffffffffffffffffffffffffffffffffffffff16610eba610f1c565b73ffffffffffffffffffffffffffffffffffffffff1614610f10576040517f08c379a0000000000000000000000000000000000000000000000000000000008152600401610f0790613987565b60405180910390fd5b610f1a6000611f46565b565b6000600760009054906101000a900473ffffffffffffffffffffffffffffffffffffffff16905090565b606060018054610f5590613678565b80601f0160208091040260200160405190810160405280929190818152602001828054610f8190613678565b8015610fce5780601f10610fa357610100808354040283529160200191610fce565b820191906000526020600020905b815481529060010190602001808311610fb157829003601f168201915b5050505050905090565b610fea610fe3611b40565b838361200c565b5050565b610fff610ff9611b40565b83611c01565b61103e576040517f08c379a00000000000000000000000000000000000000000000000000000000081526004016110359061391b565b60405180910390fd5b61104a84848484612179565b50505050565b6000600a8383604051611064929190613890565b908152602001604051809103902060009054906101000a900473ffffffffffffffffffffffffffffffffffffffff16905092915050565b3373ffffffffffffffffffffffffffffffffffffffff16600a85856040516110c4929190613890565b908152602001604051809103902060009054906101000a900473ffffffffffffffffffffffffffffffffffffffff1673ffffffffffffffffffffffffffffffffffffffff1614611149576040517f08c379a000000000000000000000000000000000000000000000000000000000815260040161114090613ba9565b60405180910390fd5b8181600b868660405161115d929190613890565b90815260200160405180910390209190611178929190612d45565b5050505050565b606061118a82611ad4565b6111c9576040517f08c379a00000000000000000000000000000000000000000000000000000000081526004016111c090613c3b565b60405180910390fd5b60006006600084815260200190815260200160002080546111e990613678565b80601f016020809104026020016040519081016040528092919081815260200182805461121590613678565b80156112625780601f1061123757610100808354040283529160200191611262565b820191906000526020600020905b81548152906001019060200180831161124557829003601f168201915b5050505050905060006112736121d5565b90506000815114156112895781925050506112cc565b6000825111156112be5780826040516020016112a6929190613c8c565b604051602081830303815290604052925050506112cc565b6112c7846121ec565b925050505b919050565b6000600560008473ffffffffffffffffffffffffffffffffffffffff1673ffffffffffffffffffffffffffffffffffffffff16815260200190815260200160002060008373ffffffffffffffffffffffffffffffffffffffff1673ffffffffffffffffffffffffffffffffffffffff16815260200190815260200160002060009054906101000a900460ff16905092915050565b600073ffffffffffffffffffffffffffffffffffffffff16600a838360405161138f929190613890565b908152602001604051809103902060009054906101000a900473ffffffffffffffffffffffffffffffffffffffff1673ffffffffffffffffffffffffffffffffffffffff1614611414576040517f08c379a000000000000000000000000000000000000000000000000000000000815260040161140b90613cfc565b60405180910390fd5b60003073ffffffffffffffffffffffffffffffffffffffff1663fe2c619884846040518363ffffffff1660e01b8152600401611451929190613d49565b602060405180830381865afa15801561146e573d6000803e3d6000fd5b505050506040513d601f19601f820116820180604052508101906114929190613d82565b9050803410156114d7576040517f08c379a00000000000000000000000000000000000000000000000000000000081526004016114ce90613dfb565b60405180910390fd5b6000838360096040516020016114ef93929190613efb565b60405160208183030381529060405290506000600c82600d60405160200161151993929190613f2c565b604051602081830303815290604052905060006115366008612293565b9050600061158787878080601f016020809104026020016040519081016040528093929190818152602001838380828437600081840152601f19601f820116905080830192505050505050506122a1565b9050600061159482612456565b9050611688604051806060016040528060318152602001614b426031913989898080601f016020809104026020016040519081016040528093929190818152602001838380828437600081840152601f19601f820116905080830192505050505050506009805461160490613678565b80601f016020809104026020016040519081016040528092919081815260200182805461163090613678565b801561167d5780601f106116525761010080835404028352916020019161167d565b820191906000526020600020905b81548152906001019060200180831161166057829003601f168201915b5050505050866125b7565b60006116be8661169787612659565b846040516020016116aa939291906140d9565b604051602081830303815290604052612659565b90506000816040516020016116d39190614182565b6040516020818303038152906040529050611705604051806060016040528060398152602001614b09603991396127f1565b6117446040518060400160405280600e81526020017f46696e616c20746f6b656e555249000000000000000000000000000000000000815250826119ce565b611765604051806060016040528060398152602001614b73603991396127f1565b61176f338661288a565b61177985826128a8565b33600a8b8b60405161178c929190613890565b908152602001604051809103902060006101000a81548173ffffffffffffffffffffffffffffffffffffffff021916908373ffffffffffffffffffffffffffffffffffffffff1602179055506117e2600861291c565b50505050505050505050565b6117f6611b40565b73ffffffffffffffffffffffffffffffffffffffff16611814610f1c565b73ffffffffffffffffffffffffffffffffffffffff161461186a576040517f08c379a000000000000000000000000000000000000000000000000000000000815260040161186190613987565b60405180910390fd5b600073ffffffffffffffffffffffffffffffffffffffff168173ffffffffffffffffffffffffffffffffffffffff1614156118da576040517f08c379a00000000000000000000000000000000000000000000000000000000081526004016118d190614216565b60405180910390fd5b6118e381611f46565b50565b60008061193684848080601f016020809104026020016040519081016040528093929190818152602001838380828437600081840152601f19601f820116905080830192505050505050506122a1565b90506002811180156119485750600981105b611987576040517f08c379a000000000000000000000000000000000000000000000000000000000815260040161197e906142a8565b60405180910390fd5b60038114156119a1576706f05b59d3b200009150506119c8565b60048114156119bb57670429d069189e00009150506119c8565b67016345785d8a00009150505b92915050565b611a6682826040516024016119e49291906142c8565b6040516020818303038152906040527f4b5c4277000000000000000000000000000000000000000000000000000000007bffffffffffffffffffffffffffffffffffffffffffffffffffffffff19166020820180517bffffffffffffffffffffffffffffffffffffffffffffffffffffffff8381831617835250505050612932565b5050565b60007f01ffc9a7000000000000000000000000000000000000000000000000000000007bffffffffffffffffffffffffffffffffffffffffffffffffffffffff1916827bffffffffffffffffffffffffffffffffffffffffffffffffffffffff1916149050919050565b60008073ffffffffffffffffffffffffffffffffffffffff166002600084815260200190815260200160002060009054906101000a900473ffffffffffffffffffffffffffffffffffffffff1673ffffffffffffffffffffffffffffffffffffffff1614159050919050565b600033905090565b816004600083815260200190815260200160002060006101000a81548173ffffffffffffffffffffffffffffffffffffffff021916908373ffffffffffffffffffffffffffffffffffffffff160217905550808273ffffffffffffffffffffffffffffffffffffffff16611bbb83610d2a565b73ffffffffffffffffffffffffffffffffffffffff167f8c5be1e5ebec7d5bd14f71427d1e84f3dd0314c0f7b2291e5b200ac8c7c3b92560405160405180910390a45050565b6000611c0c82611ad4565b611c4b576040517f08c379a0000000000000000000000000000000000000000000000000000000008152600401611c4290614371565b60405180910390fd5b6000611c5683610d2a565b90508073ffffffffffffffffffffffffffffffffffffffff168473ffffffffffffffffffffffffffffffffffffffff161480611cc557508373ffffffffffffffffffffffffffffffffffffffff16611cad84610793565b73ffffffffffffffffffffffffffffffffffffffff16145b80611cd65750611cd581856112d1565b5b91505092915050565b8273ffffffffffffffffffffffffffffffffffffffff16611cff82610d2a565b73ffffffffffffffffffffffffffffffffffffffff1614611d55576040517f08c379a0000000000000000000000000000000000000000000000000000000008152600401611d4c90614403565b60405180910390fd5b600073ffffffffffffffffffffffffffffffffffffffff168273ffffffffffffffffffffffffffffffffffffffff161415611dc5576040517f08c379a0000000000000000000000000000000000000000000000000000000008152600401611dbc90614495565b60405180910390fd5b611dd083838361295b565b611ddb600082611b48565b6001600360008573ffffffffffffffffffffffffffffffffffffffff1673ffffffffffffffffffffffffffffffffffffffff1681526020019081526020016000206000828254611e2b91906144e4565b925050819055506001600360008473ffffffffffffffffffffffffffffffffffffffff1673ffffffffffffffffffffffffffffffffffffffff1681526020019081526020016000206000828254611e829190614518565b92505081905550816002600083815260200190815260200160002060006101000a81548173ffffffffffffffffffffffffffffffffffffffff021916908373ffffffffffffffffffffffffffffffffffffffff160217905550808273ffffffffffffffffffffffffffffffffffffffff168473ffffffffffffffffffffffffffffffffffffffff167fddf252ad1be2c89b69c2b068fc378daa952ba7f163c4a11628f55a4df523b3ef60405160405180910390a4611f41838383612960565b505050565b6000600760009054906101000a900473ffffffffffffffffffffffffffffffffffffffff16905081600760006101000a81548173ffffffffffffffffffffffffffffffffffffffff021916908373ffffffffffffffffffffffffffffffffffffffff1602179055508173ffffffffffffffffffffffffffffffffffffffff168173ffffffffffffffffffffffffffffffffffffffff167f8be0079c531659141344cd1fd0a4f28419497f9722a3daafe3b4186f6b6457e060405160405180910390a35050565b8173ffffffffffffffffffffffffffffffffffffffff168373ffffffffffffffffffffffffffffffffffffffff16141561207b576040517f08c379a0000000000000000000000000000000000000000000000000000000008152600401612072906145ba565b60405180910390fd5b80600560008573ffffffffffffffffffffffffffffffffffffffff1673ffffffffffffffffffffffffffffffffffffffff16815260200190815260200160002060008473ffffffffffffffffffffffffffffffffffffffff1673ffffffffffffffffffffffffffffffffffffffff16815260200190815260200160002060006101000a81548160ff0219169083151502179055508173ffffffffffffffffffffffffffffffffffffffff168373ffffffffffffffffffffffffffffffffffffffff167f17307eab39ab6107e8899845ad3d59bd9653f200f220920489ca2b5937696c318360405161216c9190612f22565b60405180910390a3505050565b612184848484611cdf565b61219084848484612965565b6121cf576040517f08c379a00000000000000000000000000000000000000000000000000000000081526004016121c69061464c565b60405180910390fd5b50505050565b606060405180602001604052806000815250905090565b60606121f782611ad4565b612236576040517f08c379a000000000000000000000000000000000000000000000000000000000815260040161222d906146de565b60405180910390fd5b60006122406121d5565b90506000815111612260576040518060200160405280600081525061228b565b8061226a84612456565b60405160200161227b929190613c8c565b6040516020818303038152906040525b915050919050565b600081600001549050919050565b60008060008084519050600092505b8082101561244b5760008583815181106122cd576122cc6146fe565b5b602001015160f81c60f81b9050608060f81b817effffffffffffffffffffffffffffffffffffffffffffffffffffffffffffff1916101561231c576001836123159190614518565b9250612437565b60e060f81b817effffffffffffffffffffffffffffffffffffffffffffffffffffffffffffff1916101561235e576002836123579190614518565b9250612436565b60f060f81b817effffffffffffffffffffffffffffffffffffffffffffffffffffffffffffff191610156123a0576003836123999190614518565b9250612435565b60f8801b817effffffffffffffffffffffffffffffffffffffffffffffffffffffffffffff191610156123e1576004836123da9190614518565b9250612434565b60fc60f81b817effffffffffffffffffffffffffffffffffffffffffffffffffffffffffffff191610156124235760058361241c9190614518565b9250612433565b6006836124309190614518565b92505b5b5b5b5b5082806124439061472d565b9350506122b0565b829350505050919050565b6060600082141561249e576040518060400160405280600181526020017f300000000000000000000000000000000000000000000000000000000000000081525090506125b2565b600082905060005b600082146124d05780806124b99061472d565b915050600a826124c991906147a5565b91506124a6565b60008167ffffffffffffffff8111156124ec576124eb61322d565b5b6040519080825280601f01601f19166020018201604052801561251e5781602001600182028036833780820191505090505b5090505b600085146125ab5760018261253791906144e4565b9150600a8561254691906147d6565b60306125529190614518565b60f81b818381518110612568576125676146fe565b5b60200101907effffffffffffffffffffffffffffffffffffffffffffffffffffffffffffff1916908160001a905350600a856125a491906147a5565b9450612522565b8093505050505b919050565b612653848484846040516024016125d19493929190614807565b6040516020818303038152906040527f9fd009f5000000000000000000000000000000000000000000000000000000007bffffffffffffffffffffffffffffffffffffffffffffffffffffffff19166020820180517bffffffffffffffffffffffffffffffffffffffffffffffffffffffff8381831617835250505050612932565b50505050565b6060600082519050600081141561268257604051806020016040528060008152509150506127ec565b600060036002836126939190614518565b61269d91906147a5565b60046126a99190614861565b905060006020826126ba9190614518565b67ffffffffffffffff8111156126d3576126d261322d565b5b6040519080825280601f01601f1916602001820160405280156127055781602001600182028036833780820191505090505b5090506000604051806060016040528060408152602001614bac604091399050600181016020830160005b868110156127a95760038101905062ffffff818a015116603f8160121c168401518060081b905060ff603f83600c1c1686015116810190508060081b905060ff603f8360061c1686015116810190508060081b905060ff603f831686015116810190508060e01b90508084526004840193505050612730565b5060038606600181146127c357600281146127d3576127de565b613d3d60f01b60028303526127de565b603d60f81b60018303525b508484525050819450505050505b919050565b612887816040516024016128059190612fd6565b6040516020818303038152906040527f41304fac000000000000000000000000000000000000000000000000000000007bffffffffffffffffffffffffffffffffffffffffffffffffffffffff19166020820180517bffffffffffffffffffffffffffffffffffffffffffffffffffffffff8381831617835250505050612932565b50565b6128a4828260405180602001604052806000815250612aed565b5050565b6128b182611ad4565b6128f0576040517f08c379a00000000000000000000000000000000000000000000000000000000081526004016128e79061492d565b60405180910390fd5b80600660008481526020019081526020016000209080519060200190612917929190612dcb565b505050565b6001816000016000828254019250508190555050565b60008151905060006a636f6e736f6c652e6c6f679050602083016000808483855afa5050505050565b505050565b505050565b60006129868473ffffffffffffffffffffffffffffffffffffffff16612b48565b15612ae0578373ffffffffffffffffffffffffffffffffffffffff1663150b7a026129af611b40565b8786866040518563ffffffff1660e01b81526004016129d194939291906149a2565b6020604051808303816000875af1925050508015612a0d57506040513d601f19601f82011682018060405250810190612a0a9190614a03565b60015b612a90573d8060008114612a3d576040519150601f19603f3d011682016040523d82523d6000602084013e612a42565b606091505b50600081511415612a88576040517f08c379a0000000000000000000000000000000000000000000000000000000008152600401612a7f9061464c565b60405180910390fd5b805181602001fd5b63150b7a0260e01b7bffffffffffffffffffffffffffffffffffffffffffffffffffffffff1916817bffffffffffffffffffffffffffffffffffffffffffffffffffffffff191614915050612ae5565b600190505b949350505050565b612af78383612b6b565b612b046000848484612965565b612b43576040517f08c379a0000000000000000000000000000000000000000000000000000000008152600401612b3a9061464c565b60405180910390fd5b505050565b6000808273ffffffffffffffffffffffffffffffffffffffff163b119050919050565b600073ffffffffffffffffffffffffffffffffffffffff168273ffffffffffffffffffffffffffffffffffffffff161415612bdb576040517f08c379a0000000000000000000000000000000000000000000000000000000008152600401612bd290614a7c565b60405180910390fd5b612be481611ad4565b15612c24576040517f08c379a0000000000000000000000000000000000000000000000000000000008152600401612c1b90614ae8565b60405180910390fd5b612c306000838361295b565b6001600360008473ffffffffffffffffffffffffffffffffffffffff1673ffffffffffffffffffffffffffffffffffffffff1681526020019081526020016000206000828254612c809190614518565b92505081905550816002600083815260200190815260200160002060006101000a81548173ffffffffffffffffffffffffffffffffffffffff021916908373ffffffffffffffffffffffffffffffffffffffff160217905550808273ffffffffffffffffffffffffffffffffffffffff16600073ffffffffffffffffffffffffffffffffffffffff167fddf252ad1be2c89b69c2b068fc378daa952ba7f163c4a11628f55a4df523b3ef60405160405180910390a4612d4160008383612960565b5050565b828054612d5190613678565b90600052602060002090601f016020900481019282612d735760008555612dba565b82601f10612d8c57803560ff1916838001178555612dba565b82800160010185558215612dba579182015b82811115612db9578235825591602001919060010190612d9e565b5b509050612dc79190612e51565b5090565b828054612dd790613678565b90600052602060002090601f016020900481019282612df95760008555612e40565b82601f10612e1257805160ff1916838001178555612e40565b82800160010185558215612e40579182015b82811115612e3f578251825591602001919060010190612e24565b5b509050612e4d9190612e51565b5090565b5b80821115612e6a576000816000905550600101612e52565b5090565b6000604051905090565b600080fd5b600080fd5b60007fffffffff0000000000000000000000000000000000000000000000000000000082169050919050565b612eb781612e82565b8114612ec257600080fd5b50565b600081359050612ed481612eae565b92915050565b600060208284031215612ef057612eef612e78565b5b6000612efe84828501612ec5565b91505092915050565b60008115159050919050565b612f1c81612f07565b82525050565b6000602082019050612f376000830184612f13565b92915050565b600081519050919050565b600082825260208201905092915050565b60005b83811015612f77578082015181840152602081019050612f5c565b83811115612f86576000848401525b50505050565b6000601f19601f8301169050919050565b6000612fa882612f3d565b612fb28185612f48565b9350612fc2818560208601612f59565b612fcb81612f8c565b840191505092915050565b60006020820190508181036000830152612ff08184612f9d565b905092915050565b6000819050919050565b61300b81612ff8565b811461301657600080fd5b50565b60008135905061302881613002565b92915050565b60006020828403121561304457613043612e78565b5b600061305284828501613019565b91505092915050565b600073ffffffffffffffffffffffffffffffffffffffff82169050919050565b60006130868261305b565b9050919050565b6130968161307b565b82525050565b60006020820190506130b1600083018461308d565b92915050565b6130c08161307b565b81146130cb57600080fd5b50565b6000813590506130dd816130b7565b92915050565b600080604083850312156130fa576130f9612e78565b5b6000613108858286016130ce565b925050602061311985828601613019565b9150509250929050565b600080fd5b600080fd5b600080fd5b60008083601f84011261314857613147613123565b5b8235905067ffffffffffffffff81111561316557613164613128565b5b6020830191508360018202830111156131815761318061312d565b5b9250929050565b6000806020838503121561319f5761319e612e78565b5b600083013567ffffffffffffffff8111156131bd576131bc612e7d565b5b6131c985828601613132565b92509250509250929050565b6000806000606084860312156131ee576131ed612e78565b5b60006131fc868287016130ce565b935050602061320d868287016130ce565b925050604061321e86828701613019565b9150509250925092565b600080fd5b7f4e487b7100000000000000000000000000000000000000000000000000000000600052604160045260246000fd5b61326582612f8c565b810181811067ffffffffffffffff821117156132845761328361322d565b5b80604052505050565b6000613297612e6e565b90506132a3828261325c565b919050565b600067ffffffffffffffff8211156132c3576132c261322d565b5b6132cc82612f8c565b9050602081019050919050565b82818337600083830152505050565b60006132fb6132f6846132a8565b61328d565b90508281526020810184848401111561331757613316613228565b5b6133228482856132d9565b509392505050565b600082601f83011261333f5761333e613123565b5b813561334f8482602086016132e8565b91505092915050565b60006020828403121561336e5761336d612e78565b5b600082013567ffffffffffffffff81111561338c5761338b612e7d565b5b6133988482850161332a565b91505092915050565b6000602082840312156133b7576133b6612e78565b5b60006133c5848285016130ce565b91505092915050565b6133d781612ff8565b82525050565b60006020820190506133f260008301846133ce565b92915050565b61340181612f07565b811461340c57600080fd5b50565b60008135905061341e816133f8565b92915050565b6000806040838503121561343b5761343a612e78565b5b6000613449858286016130ce565b925050602061345a8582860161340f565b9150509250929050565b600067ffffffffffffffff82111561347f5761347e61322d565b5b61348882612f8c565b9050602081019050919050565b60006134a86134a384613464565b61328d565b9050828152602081018484840111156134c4576134c3613228565b5b6134cf8482856132d9565b509392505050565b600082601f8301126134ec576134eb613123565b5b81356134fc848260208601613495565b91505092915050565b6000806000806080858703121561351f5761351e612e78565b5b600061352d878288016130ce565b945050602061353e878288016130ce565b935050604061354f87828801613019565b925050606085013567ffffffffffffffff8111156135705761356f612e7d565b5b61357c878288016134d7565b91505092959194509250565b600080600080604085870312156135a2576135a1612e78565b5b600085013567ffffffffffffffff8111156135c0576135bf612e7d565b5b6135cc87828801613132565b9450945050602085013567ffffffffffffffff8111156135ef576135ee612e7d565b5b6135fb87828801613132565b925092505092959194509250565b600080604083850312156136205761361f612e78565b5b600061362e858286016130ce565b925050602061363f858286016130ce565b9150509250929050565b7f4e487b7100000000000000000000000000000000000000000000000000000000600052602260045260246000fd5b6000600282049050600182168061369057607f821691505b602082108114156136a4576136a3613649565b5b50919050565b7f4552433732313a20617070726f76656420717565727920666f72206e6f6e657860008201527f697374656e7420746f6b656e0000000000000000000000000000000000000000602082015250565b6000613706602c83612f48565b9150613711826136aa565b604082019050919050565b60006020820190508181036000830152613735816136f9565b9050919050565b7f4552433732313a20617070726f76616c20746f2063757272656e74206f776e6560008201527f7200000000000000000000000000000000000000000000000000000000000000602082015250565b6000613798602183612f48565b91506137a38261373c565b604082019050919050565b600060208201905081810360008301526137c78161378b565b9050919050565b7f4552433732313a20617070726f76652063616c6c6572206973206e6f74206f7760008201527f6e6572206e6f7220617070726f76656420666f7220616c6c0000000000000000602082015250565b600061382a603883612f48565b9150613835826137ce565b604082019050919050565b600060208201905081810360008301526138598161381d565b9050919050565b600081905092915050565b60006138778385613860565b93506138848385846132d9565b82840190509392505050565b600061389d82848661386b565b91508190509392505050565b7f4552433732313a207472616e736665722063616c6c6572206973206e6f74206f60008201527f776e6572206e6f7220617070726f766564000000000000000000000000000000602082015250565b6000613905603183612f48565b9150613910826138a9565b604082019050919050565b60006020820190508181036000830152613934816138f8565b9050919050565b7f4f776e61626c653a2063616c6c6572206973206e6f7420746865206f776e6572600082015250565b6000613971602083612f48565b915061397c8261393b565b602082019050919050565b600060208201905081810360008301526139a081613964565b9050919050565b7f596f7520617265206e6f7420746865206f776e65720000000000000000000000600082015250565b60006139dd601583612f48565b91506139e8826139a7565b602082019050919050565b60006020820190508181036000830152613a0c816139d0565b9050919050565b7f4552433732313a206f776e657220717565727920666f72206e6f6e657869737460008201527f656e7420746f6b656e0000000000000000000000000000000000000000000000602082015250565b6000613a6f602983612f48565b9150613a7a82613a13565b604082019050919050565b60006020820190508181036000830152613a9e81613a62565b9050919050565b7f4552433732313a2062616c616e636520717565727920666f7220746865207a6560008201527f726f206164647265737300000000000000000000000000000000000000000000602082015250565b6000613b01602a83612f48565b9150613b0c82613aa5565b604082019050919050565b60006020820190508181036000830152613b3081613af4565b9050919050565b7f596f7520617265206e6f7420746865206f776e6572206f66207468697320646f60008201527f6d61696e00000000000000000000000000000000000000000000000000000000602082015250565b6000613b93602483612f48565b9150613b9e82613b37565b604082019050919050565b60006020820190508181036000830152613bc281613b86565b9050919050565b7f45524337323155524953746f726167653a2055524920717565727920666f722060008201527f6e6f6e6578697374656e7420746f6b656e000000000000000000000000000000602082015250565b6000613c25603183612f48565b9150613c3082613bc9565b604082019050919050565b60006020820190508181036000830152613c5481613c18565b9050919050565b6000613c6682612f3d565b613c708185613860565b9350613c80818560208601612f59565b80840191505092915050565b6000613c988285613c5b565b9150613ca48284613c5b565b91508190509392505050565b7f446f6d61696e20616c7265616479207265676973746572656400000000000000600082015250565b6000613ce6601983612f48565b9150613cf182613cb0565b602082019050919050565b60006020820190508181036000830152613d1581613cd9565b9050919050565b6000613d288385612f48565b9350613d358385846132d9565b613d3e83612f8c565b840190509392505050565b60006020820190508181036000830152613d64818486613d1c565b90509392505050565b600081519050613d7c81613002565b92915050565b600060208284031215613d9857613d97612e78565b5b6000613da684828501613d6d565b91505092915050565b7f4e6f7420656e6f7567682066756e647300000000000000000000000000000000600082015250565b6000613de5601083612f48565b9150613df082613daf565b602082019050919050565b60006020820190508181036000830152613e1481613dd8565b9050919050565b7f2e00000000000000000000000000000000000000000000000000000000000000600082015250565b6000613e51600183613860565b9150613e5c82613e1b565b600182019050919050565b60008190508160005260206000209050919050565b60008154613e8981613678565b613e938186613860565b94506001821660008114613eae5760018114613ebf57613ef2565b60ff19831686528186019350613ef2565b613ec885613e67565b60005b83811015613eea57815481890152600182019150602081019050613ecb565b838801955050505b50505092915050565b6000613f0882858761386b565b9150613f1382613e44565b9150613f1f8284613e7c565b9150819050949350505050565b6000613f388286613e7c565b9150613f448285613c5b565b9150613f508284613e7c565b9150819050949350505050565b7f7b226e616d65223a202200000000000000000000000000000000000000000000600082015250565b6000613f93600a83613860565b9150613f9e82613f5d565b600a82019050919050565b7f222c20226465736372697074696f6e223a20224120646f6d61696e206f6e207460008201527f686520466f726d756c6131204e616d652053657276696365222c2022696d616760208201527f65223a2022646174613a696d6167652f7376672b786d6c3b6261736536342c00604082015250565b600061402b605f83613860565b915061403682613fa9565b605f82019050919050565b7f222c226c656e677468223a220000000000000000000000000000000000000000600082015250565b6000614077600c83613860565b915061408282614041565b600c82019050919050565b7f227d000000000000000000000000000000000000000000000000000000000000600082015250565b60006140c3600283613860565b91506140ce8261408d565b600282019050919050565b60006140e482613f86565b91506140f08286613c5b565b91506140fb8261401e565b91506141078285613c5b565b91506141128261406a565b915061411e8284613c5b565b9150614129826140b6565b9150819050949350505050565b7f646174613a6170706c69636174696f6e2f6a736f6e3b6261736536342c000000600082015250565b600061416c601d83613860565b915061417782614136565b601d82019050919050565b600061418d8261415f565b91506141998284613c5b565b915081905092915050565b7f4f776e61626c653a206e6577206f776e657220697320746865207a65726f206160008201527f6464726573730000000000000000000000000000000000000000000000000000602082015250565b6000614200602683612f48565b915061420b826141a4565b604082019050919050565b6000602082019050818103600083015261422f816141f3565b9050919050565b7f6e616d65206d757374206265206174206c65617374203320636861726163746560008201527f7273206c6f6e6700000000000000000000000000000000000000000000000000602082015250565b6000614292602783612f48565b915061429d82614236565b604082019050919050565b600060208201905081810360008301526142c181614285565b9050919050565b600060408201905081810360008301526142e28185612f9d565b905081810360208301526142f68184612f9d565b90509392505050565b7f4552433732313a206f70657261746f7220717565727920666f72206e6f6e657860008201527f697374656e7420746f6b656e0000000000000000000000000000000000000000602082015250565b600061435b602c83612f48565b9150614366826142ff565b604082019050919050565b6000602082019050818103600083015261438a8161434e565b9050919050565b7f4552433732313a207472616e736665722066726f6d20696e636f72726563742060008201527f6f776e6572000000000000000000000000000000000000000000000000000000602082015250565b60006143ed602583612f48565b91506143f882614391565b604082019050919050565b6000602082019050818103600083015261441c816143e0565b9050919050565b7f4552433732313a207472616e7366657220746f20746865207a65726f2061646460008201527f7265737300000000000000000000000000000000000000000000000000000000602082015250565b600061447f602483612f48565b915061448a82614423565b604082019050919050565b600060208201905081810360008301526144ae81614472565b9050919050565b7f4e487b7100000000000000000000000000000000000000000000000000000000600052601160045260246000fd5b60006144ef82612ff8565b91506144fa83612ff8565b92508282101561450d5761450c6144b5565b5b828203905092915050565b600061452382612ff8565b915061452e83612ff8565b9250827fffffffffffffffffffffffffffffffffffffffffffffffffffffffffffffffff03821115614563576145626144b5565b5b828201905092915050565b7f4552433732313a20617070726f766520746f2063616c6c657200000000000000600082015250565b60006145a4601983612f48565b91506145af8261456e565b602082019050919050565b600060208201905081810360008301526145d381614597565b9050919050565b7f4552433732313a207472616e7366657220746f206e6f6e20455243373231526560008201527f63656976657220696d706c656d656e7465720000000000000000000000000000602082015250565b6000614636603283612f48565b9150614641826145da565b604082019050919050565b6000602082019050818103600083015261466581614629565b9050919050565b7f4552433732314d657461646174613a2055524920717565727920666f72206e6f60008201527f6e6578697374656e7420746f6b656e0000000000000000000000000000000000602082015250565b60006146c8602f83612f48565b91506146d38261466c565b604082019050919050565b600060208201905081810360008301526146f7816146bb565b9050919050565b7f4e487b7100000000000000000000000000000000000000000000000000000000600052603260045260246000fd5b600061473882612ff8565b91507fffffffffffffffffffffffffffffffffffffffffffffffffffffffffffffffff82141561476b5761476a6144b5565b5b600182019050919050565b7f4e487b7100000000000000000000000000000000000000000000000000000000600052601260045260246000fd5b60006147b082612ff8565b91506147bb83612ff8565b9250826147cb576147ca614776565b5b828204905092915050565b60006147e182612ff8565b91506147ec83612ff8565b9250826147fc576147fb614776565b5b828206905092915050565b600060808201905081810360008301526148218187612f9d565b905081810360208301526148358186612f9d565b905081810360408301526148498185612f9d565b905061485860608301846133ce565b95945050505050565b600061486c82612ff8565b915061487783612ff8565b9250817fffffffffffffffffffffffffffffffffffffffffffffffffffffffffffffffff04831182151516156148b0576148af6144b5565b5b828202905092915050565b7f45524337323155524953746f726167653a2055524920736574206f66206e6f6e60008201527f6578697374656e7420746f6b656e000000000000000000000000000000000000602082015250565b6000614917602e83612f48565b9150614922826148bb565b604082019050919050565b600060208201905081810360008301526149468161490a565b9050919050565b600081519050919050565b600082825260208201905092915050565b60006149748261494d565b61497e8185614958565b935061498e818560208601612f59565b61499781612f8c565b840191505092915050565b60006080820190506149b7600083018761308d565b6149c4602083018661308d565b6149d160408301856133ce565b81810360608301526149e38184614969565b905095945050505050565b6000815190506149fd81612eae565b92915050565b600060208284031215614a1957614a18612e78565b5b6000614a27848285016149ee565b91505092915050565b7f4552433732313a206d696e7420746f20746865207a65726f2061646472657373600082015250565b6000614a66602083612f48565b9150614a7182614a30565b602082019050919050565b60006020820190508181036000830152614a9581614a59565b9050919050565b7f4552433732313a20746f6b656e20616c7265616479206d696e74656400000000600082015250565b6000614ad2601c83612f48565b9150614add82614a9c565b602082019050919050565b60006020820190508181036000830152614b0181614ac5565b905091905056fe0a2d2d2d2d2d2d2d2d2d2d2d2d2d2d2d2d2d2d2d2d2d2d2d2d2d2d2d2d2d2d2d2d2d2d2d2d2d2d2d2d2d2d2d2d2d2d2d2d2d2d2d2d2d2d2d2d5265676973746572696e672025732e2573206f6e2074686520636f6e7472616374207769746820746f6b656e49442025642d2d2d2d2d2d2d2d2d2d2d2d2d2d2d2d2d2d2d2d2d2d2d2d2d2d2d2d2d2d2d2d2d2d2d2d2d2d2d2d2d2d2d2d2d2d2d2d2d2d2d2d2d2d2d2d0a4142434445464748494a4b4c4d4e4f505152535455565758595a6162636465666768696a6b6c6d6e6f707172737475767778797a303132333435363738392b2fa26469706673582212202154efd387393ec59de87645d7ac12b2efc8bce8e69dad011d7f7ed45ce1e04864736f6c634300080a00333c73766720786d6c6e733d22687474703a2f2f7777772e77332e6f72672f323030302f737667222077696474683d2232373022206865696768743d22323730222066696c6c3d226e6f6e65223e3c706174682066696c6c3d2275726c282342292220643d224d302030683237307632373048307a222f3e3c646566733e3c66696c7465722069643d22412220636f6c6f722d696e746572706f6c6174696f6e2d66696c746572733d2273524742222066696c746572556e6974733d227573657253706163654f6e55736522206865696768743d22323730222077696474683d22323730223e3c666544726f70536861646f772064783d2230222064793d22312220737464446576696174696f6e3d22322220666c6f6f642d6f7061636974793d222e323235222077696474683d223230302522206865696768743d2232303025222f3e3c2f66696c7465723e3c2f646566733e3c706174682066696c6c2d72756c653d226576656e6f64642220636c69702d72756c653d226576656e6f64642220643d224d3137372e343133203130312e393939483137382e3232365639382e32333738483137382e32344c3137392e353931203130312e393939483138302e3239344c3138312e3634352039382e32333738483138312e363539563130312e393939483138322e3437325639372e313235483138312e3238334c3137392e393733203130302e3934483137392e3935394c3137382e3631342039372e313235483137372e343133563130312e3939395a4d3137322e3931362039372e38363231483137342e343538563130312e393939483137352e3331315639372e38363231483137362e3836315639372e313235483137322e3931365639372e383632315a4d313633203130312e3939394c323032203633483137382e3532374c3133392e353239203130312e393939483136332e303031483136335a4d3135372e3430392037392e39383431483131302e3139374339352e383038342037392e393834312039332e323930322038302e373437322038372e313237322038362e39314338312e333632382039322e363732392037322e30303034203130322037322e30303034203130324839322e343531374c39372e333330382039372e31313938433130302e3533392039332e39313237203130322e3139332039332e35373939203130382e3932382039332e35373939483134332e3831324c3135372e3430372037392e393833364c3135372e3430392037392e393834315a4d38362e343937352038342e313238354338322e323431322038382e313435352037322e393738392039372e3134312036372e39383637203130312e393939483436433436203130312e3939392036332e363137372038342e343332372037332e343130352037342e373933364338332e343939362036352e313930392038382e353238322036332e30303034203130372e3033332036332e30303034483137342e3339344c3135392e3830392037372e35383437483130382e3430324339352e333939382037372e353834372039322e343738362037382e343835362038362e343938382038342e313238354838362e343937355a222066696c6c3d227768697465222f3e3c646566733e3c6c696e6561724772616469656e742069643d2242222078313d222d312e3635333832652d3037222079313d2236222078323d223235352e373032222079323d223234382e333122206772616469656e74556e6974733d227573657253706163654f6e557365223e3c73746f702073746f702d636f6c6f723d2223453334413135222f3e3c73746f70206f66667365743d22302e343630363637222073746f702d636f6c6f723d2223423133413131222f3e3c73746f70206f66667365743d2231222073746f702d636f6c6f723d2223363932313038222f3e3c2f6c696e6561724772616469656e743e3c2f646566733e3c7465787420783d2233322e352220793d223230302220666f6e742d73697a653d223237222066696c6c3d2223666666222066696c7465723d2275726c282341292220666f6e742d66616d696c793d22506c7573204a616b617274612053616e732c44656a6156752053616e732c4e6f746f20436f6c6f7220456d6f6a692c4170706c6520436f6c6f7220456d6f6a692c73616e732d73657269662220666f6e742d7765696768743d22626f6c64223e",
    "linkReferences": {},
    "deployedLinkReferences": {}
}